{
    "_format": "hh-sol-artifact-1",
    "contractName": "StakingContract",
    "sourceName": "contracts/StakingContract.sol",
    "abi": [
        {
            "inputs": [],
            "stateMutability": "nonpayable",
            "type": "constructor"
        },
        {
            "inputs": [],
            "name": "INDEX_ID",
            "outputs": [
                {
                    "internalType": "uint32",
                    "name": "",
                    "type": "uint32"
                }
            ],
            "stateMutability": "view",
            "type": "function"
        },
        {
            "inputs": [
                {
                    "internalType": "uint256",
                    "name": "_id",
                    "type": "uint256"
                }
            ],
            "name": "afterDistribution",
            "outputs": [],
            "stateMutability": "nonpayable",
            "type": "function"
        },
        {
            "inputs": [
                {
                    "internalType": "uint256",
                    "name": "_id",
                    "type": "uint256"
                }
            ],
            "name": "distribute",
            "outputs": [],
            "stateMutability": "nonpayable",
            "type": "function"
        },
        {
            "inputs": [],
            "name": "getAllPublisherData",
            "outputs": [
                {
                    "components": [
                        {
                            "internalType": "uint256",
                            "name": "id",
                            "type": "uint256"
                        },
                        {
                            "internalType": "uint32",
                            "name": "index_id",
                            "type": "uint32"
                        },
                        {
                            "internalType": "uint256",
                            "name": "amount",
                            "type": "uint256"
                        },
                        {
                            "internalType": "uint256",
                            "name": "no_day",
                            "type": "uint256"
                        },
                        {
                            "internalType": "uint256",
                            "name": "perday_value",
                            "type": "uint256"
                        },
                        {
                            "internalType": "uint256",
                            "name": "startTime",
                            "type": "uint256"
                        },
                        {
                            "internalType": "address",
                            "name": "publisher",
                            "type": "address"
                        },
                        {
                            "internalType": "contract ISuperToken",
                            "name": "token",
                            "type": "address"
                        },
                        {
                            "internalType": "bool",
                            "name": "hasDistrubted",
                            "type": "bool"
                        },
                        {
                            "internalType": "string",
                            "name": "tokenName",
                            "type": "string"
                        },
                        {
                            "internalType": "string",
                            "name": "tokenSymbol",
                            "type": "string"
                        }
                    ],
                    "internalType": "struct StakingContract.Publisher[]",
                    "name": "",
                    "type": "tuple[]"
                }
            ],
            "stateMutability": "view",
            "type": "function"
        },
        {
            "inputs": [],
            "name": "getPublisherId",
            "outputs": [
                {
                    "internalType": "uint256",
                    "name": "",
                    "type": "uint256"
                }
            ],
            "stateMutability": "view",
            "type": "function"
        },
        {
            "inputs": [
                {
                    "internalType": "address",
                    "name": "",
                    "type": "address"
                },
                {
                    "internalType": "uint256",
                    "name": "",
                    "type": "uint256"
                }
            ],
            "name": "hasUserStaked",
            "outputs": [
                {
                    "internalType": "bool",
                    "name": "",
                    "type": "bool"
                }
            ],
            "stateMutability": "view",
            "type": "function"
        },
        {
            "inputs": [
                {
                    "internalType": "uint256",
                    "name": "",
                    "type": "uint256"
                }
            ],
            "name": "idToPublisher",
            "outputs": [
                {
                    "internalType": "uint256",
                    "name": "id",
                    "type": "uint256"
                },
                {
                    "internalType": "uint32",
                    "name": "index_id",
                    "type": "uint32"
                },
                {
                    "internalType": "uint256",
                    "name": "amount",
                    "type": "uint256"
                },
                {
                    "internalType": "uint256",
                    "name": "no_day",
                    "type": "uint256"
                },
                {
                    "internalType": "uint256",
                    "name": "perday_value",
                    "type": "uint256"
                },
                {
                    "internalType": "uint256",
                    "name": "startTime",
                    "type": "uint256"
                },
                {
                    "internalType": "address",
                    "name": "publisher",
                    "type": "address"
                },
                {
                    "internalType": "contract ISuperToken",
                    "name": "token",
                    "type": "address"
                },
                {
                    "internalType": "bool",
                    "name": "hasDistrubted",
                    "type": "bool"
                },
                {
                    "internalType": "string",
                    "name": "tokenName",
                    "type": "string"
                },
                {
                    "internalType": "string",
                    "name": "tokenSymbol",
                    "type": "string"
                }
            ],
            "stateMutability": "view",
            "type": "function"
        },
        {
            "inputs": [
                {
                    "internalType": "uint256",
                    "name": "",
                    "type": "uint256"
                },
                {
                    "internalType": "uint256",
                    "name": "",
                    "type": "uint256"
                }
            ],
            "name": "idToStakers",
            "outputs": [
                {
                    "internalType": "address",
                    "name": "",
                    "type": "address"
                }
            ],
            "stateMutability": "view",
            "type": "function"
        },
        {
            "inputs": [],
            "name": "idaV1",
            "outputs": [
                {
                    "internalType": "contract ISuperfluid",
                    "name": "host",
                    "type": "address"
                },
                {
                    "internalType": "contract IInstantDistributionAgreementV1",
                    "name": "ida",
                    "type": "address"
                }
            ],
            "stateMutability": "view",
            "type": "function"
        },
        {
            "inputs": [
                {
                    "internalType": "contract ISuperfluid",
                    "name": "_host",
                    "type": "address"
                },
                {
                    "internalType": "contract ISuperToken",
                    "name": "_spreaderToken",
                    "type": "address"
                },
                {
                    "internalType": "uint256",
                    "name": "_amount",
                    "type": "uint256"
                },
                {
                    "internalType": "uint256",
                    "name": "_start",
                    "type": "uint256"
                },
                {
                    "internalType": "uint256",
                    "name": "_days",
                    "type": "uint256"
                },
                {
                    "internalType": "string",
                    "name": "_name",
                    "type": "string"
                },
                {
                    "internalType": "string",
                    "name": "_symbol",
                    "type": "string"
                }
            ],
            "name": "publishTokens",
            "outputs": [],
            "stateMutability": "payable",
            "type": "function"
        },
        {
            "inputs": [
                {
                    "internalType": "uint256",
                    "name": "_id",
                    "type": "uint256"
                }
            ],
            "name": "publisherDetails",
            "outputs": [
                {
                    "components": [
                        {
                            "internalType": "uint256",
                            "name": "id",
                            "type": "uint256"
                        },
                        {
                            "internalType": "uint32",
                            "name": "index_id",
                            "type": "uint32"
                        },
                        {
                            "internalType": "uint256",
                            "name": "amount",
                            "type": "uint256"
                        },
                        {
                            "internalType": "uint256",
                            "name": "no_day",
                            "type": "uint256"
                        },
                        {
                            "internalType": "uint256",
                            "name": "perday_value",
                            "type": "uint256"
                        },
                        {
                            "internalType": "uint256",
                            "name": "startTime",
                            "type": "uint256"
                        },
                        {
                            "internalType": "address",
                            "name": "publisher",
                            "type": "address"
                        },
                        {
                            "internalType": "contract ISuperToken",
                            "name": "token",
                            "type": "address"
                        },
                        {
                            "internalType": "bool",
                            "name": "hasDistrubted",
                            "type": "bool"
                        },
                        {
                            "internalType": "string",
                            "name": "tokenName",
                            "type": "string"
                        },
                        {
                            "internalType": "string",
                            "name": "tokenSymbol",
                            "type": "string"
                        }
                    ],
                    "internalType": "struct StakingContract.Publisher",
                    "name": "",
                    "type": "tuple"
                }
            ],
            "stateMutability": "view",
            "type": "function"
        },
        {
            "inputs": [
                {
                    "internalType": "uint256",
                    "name": "_amount",
                    "type": "uint256"
                },
                {
                    "internalType": "uint256",
                    "name": "_publishId",
                    "type": "uint256"
                }
            ],
            "name": "stakeTokens",
            "outputs": [],
            "stateMutability": "payable",
            "type": "function"
        },
        {
            "inputs": [
                {
                    "internalType": "uint256",
                    "name": "_id",
                    "type": "uint256"
                }
            ],
            "name": "unStakeSubscription",
            "outputs": [],
            "stateMutability": "nonpayable",
            "type": "function"
        },
        {
            "inputs": [
                {
                    "internalType": "address",
                    "name": "",
                    "type": "address"
                },
                {
                    "internalType": "uint256",
                    "name": "",
                    "type": "uint256"
                }
            ],
            "name": "userCampaignStakedamount",
            "outputs": [
                {
                    "internalType": "uint256",
                    "name": "",
                    "type": "uint256"
                }
            ],
            "stateMutability": "view",
            "type": "function"
        },
        {
            "inputs": [
                {
                    "internalType": "address",
                    "name": "",
                    "type": "address"
                }
            ],
            "name": "userTotalStakedAmount",
            "outputs": [
                {
                    "internalType": "uint256",
                    "name": "",
                    "type": "uint256"
                }
            ],
            "stateMutability": "view",
            "type": "function"
        }
    ],
    "bytecode": "0x60806040526002805463ffffffff1916905534801561001d57600080fd5b5060028054600160201b600160c01b0319163364010000000002179055611dfd806100496000396000f3fe6080604052600436106100e85760003560e01c80638c7f09591161008a578063b099a4aa11610059578063b099a4aa146102df578063cd662782146102ff578063dd632e1a1461031f578063f40e1bed1461035757600080fd5b80638c7f09591461023357806391c05b0b146102655780639de0423014610285578063ad6a8728146102bd57600080fd5b80633b7b6188116100c65780633b7b6188146101995780635ed43cf1146101ac5780635fdd8304146101e757806368aae9ab146101fc57600080fd5b80630edcfb09146100ed5780631cc8ca99146101025780631fde0dbe1461014e575b600080fd5b6101006100fb36600461178f565b610384565b005b34801561010e57600080fd5b50600054600154610129916001600160a01b03908116911682565b604080516001600160a01b039384168152929091166020830152015b60405180910390f35b34801561015a57600080fd5b50610189610169366004611835565b600660209081526000928352604080842090915290825290205460ff1681565b6040519015158152602001610145565b6101006101a7366004611861565b6106e1565b3480156101b857600080fd5b506101d96101c7366004611883565b60076020526000908152604090205481565b604051908152602001610145565b3480156101f357600080fd5b506003546101d9565b34801561020857600080fd5b5061021c6102173660046118a7565b610915565b6040516101459b9a99989796959493929190611918565b34801561023f57600080fd5b506002546102509063ffffffff1681565b60405163ffffffff9091168152602001610145565b34801561027157600080fd5b506101006102803660046118a7565b610a99565b34801561029157600080fd5b506101d96102a0366004611835565b600860209081526000928352604080842090915290825290205481565b3480156102c957600080fd5b506102d2610c29565b6040516101459190611a6a565b3480156102eb57600080fd5b506101006102fa3660046118a7565b610e90565b34801561030b57600080fd5b5061010061031a3660046118a7565b610f4b565b34801561032b57600080fd5b5061033f61033a366004611861565b6110a4565b6040516001600160a01b039091168152602001610145565b34801561036357600080fd5b506103776103723660046118a7565b6110dc565b6040516101459190611acc565b600085116103d95760405162461bcd60e51b815260206004820181905260248201527f416d6f756e74206d7573742062652067726561746572207468616e207a65726f60448201526064015b60405180910390fd5b6040516323b872dd60e01b81523360048201523060248201526044810186905286906001600160a01b038216906323b872dd906064016020604051808303816000875af115801561042e573d6000803e3d6000fd5b505050506040513d601f19601f820116820180604052508101906104529190611adf565b506002546104679063ffffffff166001611b17565b6002805463ffffffff191663ffffffff9290921691909117905560035461048f906001611b3f565b6003556040805180820182526001600160a01b038a168082529151635b69006f60e11b81527f8aedc3b5d4bf031e11a7e2940f7251c005698405d58e02e1c247fed3b1b3a67460048201529091602083019163b6d200de90602401602060405180830381865afa158015610507573d6000803e3d6000fd5b505050506040513d601f19601f8201168201806040525081019061052b9190611b57565b6001600160a01b039081169091528151600080549183166001600160a01b03199283161781556020909301516001805491909316911617905560025461057d9190839063ffffffff908116906112a616565b6040805161016081018252600354815260025463ffffffff16602082015290810187905260608101859052608081016105b68689611b74565b81526020808201889052336040808401919091526001600160a01b038b81166060808601919091526000608080870182905260a08088018c905260c09788018b90526003805484526004808952938790208a5181558a89015160018201805463ffffffff191663ffffffff909216919091179055968a015160028801559389015193860193909355870151908401558501516005830155928401516006820180546001600160a01b03191691851691909117905560e0840151600782018054610100870151929095166001600160a81b031990951694909417600160a01b911515919091021790925561012083015180516106b792600885019201906115a8565b5061014082015180516106d49160098401916020909101906115a8565b5050505050505050505050565b600082116107315760405162461bcd60e51b815260206004820181905260248201527f416d6f756e74206d7573742062652067726561746572207468616e207a65726f60448201526064016103d0565b6000818152600460205260409020600501544211801561076f5750600081815260046020526040902060050154429061076d9062014370611b3f565b115b6107d85760405162461bcd60e51b815260206004820152603460248201527f4569746865722074696d65206973206e6f742073746172746564206f72206d6160448201527379626520697420697320636f6d706c657465642160601b60648201526084016103d0565b81341461081b5760405162461bcd60e51b81526020600482015260116024820152704e6f7420656e6f7567682076616c75652160781b60448201526064016103d0565b33600090815260086020908152604080832084845290915281208054849290610845908490611b3f565b90915550506000818152600460209081526040808320600781015460019091015433808652600885528386208787529094529184205461089d94936001600160a01b039092169263ffffffff9081169291906112c916565b336000908152600760205260409020546108b8908390611b3f565b3360008181526007602090815260408083209490945560068152838220948252938452828120805460ff1916600190811790915560058552928120805493840181558152929092200180546001600160a01b031916909117905550565b6004602081905260009182526040909120805460018201546002830154600384015494840154600585015460068601546007870154600888018054979963ffffffff909716989597949593946001600160a01b039384169493831693600160a01b90930460ff1692919061098890611b96565b80601f01602080910402602001604051908101604052809291908181526020018280546109b490611b96565b8015610a015780601f106109d657610100808354040283529160200191610a01565b820191906000526020600020905b8154815290600101906020018083116109e457829003601f168201915b505050505090806009018054610a1690611b96565b80601f0160208091040260200160405190810160405280929190818152602001828054610a4290611b96565b8015610a8f5780601f10610a6457610100808354040283529160200191610a8f565b820191906000526020600020905b815481529060010190602001808311610a7257829003601f168201915b505050505090508b565b60025464010000000090046001600160a01b03163314610af35760405162461bcd60e51b81526020600482015260156024820152742cb7ba9030b932903737ba103a34329037bbb732b960591b60448201526064016103d0565b60008181526004602081905260408083206007015490516370a0823160e01b815230928101929092526001600160a01b0316919082906370a0823190602401602060405180830381865afa158015610b4f573d6000803e3d6000fd5b505050506040513d601f19601f82011682018060405250810190610b739190611bca565b600154600254604051632266eabb60e21b81526001600160a01b03868116600483015230602483015263ffffffff90921660448201526064810184905292935060009291169063899baaec906084016040805180830381865afa158015610bde573d6000803e3d6000fd5b505050506040513d601f19601f82011682018060405250810190610c029190611be3565b50600254909150610c2390600090859063ffffffff9081169085906112f216565b50505050565b6060600060035467ffffffffffffffff811115610c4857610c486116ca565b604051908082528060200260200182016040528015610c8157816020015b610c6e61162c565b815260200190600190039081610c665790505b50905060005b600354811015610e8a5760046000610ca0836001611b3f565b8152602080820192909252604090810160002081516101608101835281548152600182015463ffffffff16938101939093526002810154918301919091526003810154606083015260048101546080830152600581015460a083015260068101546001600160a01b0390811660c0840152600782015490811660e0840152600160a01b900460ff16151561010083015260088101805461012084019190610d4690611b96565b80601f0160208091040260200160405190810160405280929190818152602001828054610d7290611b96565b8015610dbf5780601f10610d9457610100808354040283529160200191610dbf565b820191906000526020600020905b815481529060010190602001808311610da257829003601f168201915b50505050508152602001600982018054610dd890611b96565b80601f0160208091040260200160405190810160405280929190818152602001828054610e0490611b96565b8015610e515780601f10610e2657610100808354040283529160200191610e51565b820191906000526020600020905b815481529060010190602001808311610e3457829003601f168201915b505050505081525050828281518110610e6c57610e6c611c1f565b60200260200101819052508080610e8290611c35565b915050610c87565b50919050565b60025464010000000090046001600160a01b03163314610ee85760405162461bcd60e51b81526020600482015260136024820152722cb7ba9030b932903737ba10309037bbb732b960691b60448201526064016103d0565b600081815260046020526040902042600582015560030154610f0c90600190611c4e565b600082815260046020526040812060030182905503610f48576000818152600460205260409020600701805460ff60a01b1916600160a01b1790555b50565b336000908152600860209081526040808320848452909152902054610fb25760405162461bcd60e51b815260206004820181905260248201527f596f7520646f6e2774206861766520616e79207374616b656420746f6b656e7360448201526064016103d0565b33600081815260086020908152604080832085845290915280822054905181156108fc0292818181858888f19350505050158015610ff4573d6000803e3d6000fd5b5033600081815260086020908152604080832085845282528083205493835260079091529020546110259190611c4e565b3360008181526007602081815260408084209590955560088152848320868452815284832083905560049052928120928301546001909301546110819391926001600160a01b039092169163ffffffff9182169184906112c916565b33600090815260066020908152604080832093835292905220805460ff19169055565b600560205281600052604060002081815481106110c057600080fd5b6000918252602090912001546001600160a01b03169150829050565b6110e461162c565b60008281526004602081815260409283902083516101608101855281548152600182015463ffffffff169281019290925260028101549382019390935260038301546060820152908201546080820152600582015460a082015260068201546001600160a01b0390811660c0830152600783015490811660e0830152600160a01b900460ff1615156101008201526008820180549192916101208401919061118b90611b96565b80601f01602080910402602001604051908101604052809291908181526020018280546111b790611b96565b80156112045780601f106111d957610100808354040283529160200191611204565b820191906000526020600020905b8154815290600101906020018083116111e757829003601f168201915b5050505050815260200160098201805461121d90611b96565b80601f016020809104026020016040519081016040528092919081815260200182805461124990611b96565b80156112965780601f1061126b57610100808354040283529160200191611296565b820191906000526020600020905b81548152906001019060200180831161127957829003601f168201915b5050505050815250509050919050565b6040805160008152602081019091526112c490849084908490611312565b505050565b6040805160008152602081019091526112eb90869086908690869086906113e7565b5050505050565b604080516000815260208101909152610c239085908590859085906114c9565b835460018501546040805160008152602081019091526001600160a01b03928316926339255d5b921690819063d787840a90611355908990899060448101611c65565b60408051808303601f1901815291815260208201805160e094851b6001600160e01b03909116179052519185901b6001600160e01b03191682526113a0939250908690600401611c9e565b6000604051808303816000875af11580156113bf573d6000803e3d6000fd5b505050506040513d6000823e601f3d908101601f191682016040526112eb9190810190611cd4565b855460018701546040805160008152602081019091526001600160a01b03928316926339255d5b921690819063232d2b589061142e908b908b908b908b9060448101611d42565b60408051808303601f1901815291815260208201805160e094851b6001600160e01b03909116179052519185901b6001600160e01b0319168252611479939250908690600401611c9e565b6000604051808303816000875af1158015611498573d6000803e3d6000fd5b505050506040513d6000823e601f3d908101601f191682016040526114c09190810190611cd4565b50505050505050565b845460018601546040805160008152602081019091526001600160a01b03928316926339255d5b921690819063b96731c29061150e908a908a908a9060448101611d94565b60408051808303601f1901815291815260208201805160e094851b6001600160e01b03909116179052519185901b6001600160e01b0319168252611559939250908690600401611c9e565b6000604051808303816000875af1158015611578573d6000803e3d6000fd5b505050506040513d6000823e601f3d908101601f191682016040526115a09190810190611cd4565b505050505050565b8280546115b490611b96565b90600052602060002090601f0160209004810192826115d6576000855561161c565b82601f106115ef57805160ff191683800117855561161c565b8280016001018555821561161c579182015b8281111561161c578251825591602001919060010190611601565b506116289291506116a0565b5090565b60405180610160016040528060008152602001600063ffffffff1681526020016000815260200160008152602001600081526020016000815260200160006001600160a01b0316815260200160006001600160a01b0316815260200160001515815260200160608152602001606081525090565b5b8082111561162857600081556001016116a1565b6001600160a01b0381168114610f4857600080fd5b634e487b7160e01b600052604160045260246000fd5b604051601f8201601f1916810167ffffffffffffffff81118282101715611709576117096116ca565b604052919050565b600067ffffffffffffffff82111561172b5761172b6116ca565b50601f01601f191660200190565b600082601f83011261174a57600080fd5b813561175d61175882611711565b6116e0565b81815284602083860101111561177257600080fd5b816020850160208301376000918101602001919091529392505050565b600080600080600080600060e0888a0312156117aa57600080fd5b87356117b5816116b5565b965060208801356117c5816116b5565b955060408801359450606088013593506080880135925060a088013567ffffffffffffffff808211156117f757600080fd5b6118038b838c01611739565b935060c08a013591508082111561181957600080fd5b506118268a828b01611739565b91505092959891949750929550565b6000806040838503121561184857600080fd5b8235611853816116b5565b946020939093013593505050565b6000806040838503121561187457600080fd5b50508035926020909101359150565b60006020828403121561189557600080fd5b81356118a0816116b5565b9392505050565b6000602082840312156118b957600080fd5b5035919050565b60005b838110156118db5781810151838201526020016118c3565b83811115610c235750506000910152565b600081518084526119048160208601602086016118c0565b601f01601f19169290920160200192915050565b60006101608d835263ffffffff8d1660208401528b60408401528a60608401528960808401528860a084015260018060a01b0380891660c085015280881660e08501525085151561010084015280610120840152611978818401866118ec565b905082810361014084015261198d81856118ec565b9e9d5050505050505050505050505050565b60006101608251845260208301516119bf602086018263ffffffff169052565b5060408301516040850152606083015160608501526080830151608085015260a083015160a085015260c0830151611a0260c08601826001600160a01b03169052565b5060e0830151611a1d60e08601826001600160a01b03169052565b506101008381015115159085015261012080840151818601839052611a44838701826118ec565b925050506101408084015185830382870152611a6083826118ec565b9695505050505050565b6000602080830181845280855180835260408601915060408160051b870101925083870160005b82811015611abf57603f19888603018452611aad85835161199f565b94509285019290850190600101611a91565b5092979650505050505050565b6020815260006118a0602083018461199f565b600060208284031215611af157600080fd5b815180151581146118a057600080fd5b634e487b7160e01b600052601160045260246000fd5b600063ffffffff808316818516808303821115611b3657611b36611b01565b01949350505050565b60008219821115611b5257611b52611b01565b500190565b600060208284031215611b6957600080fd5b81516118a0816116b5565b600082611b9157634e487b7160e01b600052601260045260246000fd5b500490565b600181811c90821680611baa57607f821691505b602082108103610e8a57634e487b7160e01b600052602260045260246000fd5b600060208284031215611bdc57600080fd5b5051919050565b60008060408385031215611bf657600080fd5b8251915060208301516001600160801b0381168114611c1457600080fd5b809150509250929050565b634e487b7160e01b600052603260045260246000fd5b600060018201611c4757611c47611b01565b5060010190565b600082821015611c6057611c60611b01565b500390565b6001600160a01b038416815263ffffffff83166020820152606060408201819052600090611c95908301846118ec565b95945050505050565b6001600160a01b0384168152606060208201819052600090611cc2908301856118ec565b8281036040840152611a6081856118ec565b600060208284031215611ce657600080fd5b815167ffffffffffffffff811115611cfd57600080fd5b8201601f81018413611d0e57600080fd5b8051611d1c61175882611711565b818152856020838501011115611d3157600080fd5b611c958260208301602086016118c0565b6001600160a01b03868116825263ffffffff86166020830152841660408201526001600160801b038316606082015260a060808201819052600090611d89908301846118ec565b979650505050505050565b60018060a01b038516815263ffffffff84166020820152826040820152608060608201526000611a6060808301846118ec56fea2646970667358221220e4968a8f86456975b7a6a08b87645d0627a965a57c398211de9ab0fad9fabec364736f6c634300080d0033",
    "linkReferences": {},
    "deployedLinkReferences": {}
}